{
  "contractName": "SimpleCollectible",
  "abi": [
    {
      "inputs": [
        {
          "internalType": "uint8",
          "name": "_maximumTokens",
          "type": "uint8"
        }
      ],
      "stateMutability": "nonpayable",
      "type": "constructor"
    },
    {
      "anonymous": false,
      "inputs": [
        {
          "indexed": true,
          "internalType": "address",
          "name": "owner",
          "type": "address"
        },
        {
          "indexed": true,
          "internalType": "address",
          "name": "approved",
          "type": "address"
        },
        {
          "indexed": true,
          "internalType": "uint256",
          "name": "tokenId",
          "type": "uint256"
        }
      ],
      "name": "Approval",
      "type": "event"
    },
    {
      "anonymous": false,
      "inputs": [
        {
          "indexed": true,
          "internalType": "address",
          "name": "owner",
          "type": "address"
        },
        {
          "indexed": true,
          "internalType": "address",
          "name": "operator",
          "type": "address"
        },
        {
          "indexed": false,
          "internalType": "bool",
          "name": "approved",
          "type": "bool"
        }
      ],
      "name": "ApprovalForAll",
      "type": "event"
    },
    {
      "anonymous": false,
      "inputs": [
        {
          "indexed": true,
          "internalType": "address",
          "name": "from",
          "type": "address"
        },
        {
          "indexed": true,
          "internalType": "address",
          "name": "to",
          "type": "address"
        },
        {
          "indexed": true,
          "internalType": "uint256",
          "name": "tokenId",
          "type": "uint256"
        }
      ],
      "name": "Transfer",
      "type": "event"
    },
    {
      "inputs": [
        {
          "internalType": "address",
          "name": "to",
          "type": "address"
        },
        {
          "internalType": "uint256",
          "name": "tokenId",
          "type": "uint256"
        }
      ],
      "name": "approve",
      "outputs": [],
      "stateMutability": "nonpayable",
      "type": "function"
    },
    {
      "inputs": [
        {
          "internalType": "address",
          "name": "owner",
          "type": "address"
        }
      ],
      "name": "balanceOf",
      "outputs": [
        {
          "internalType": "uint256",
          "name": "",
          "type": "uint256"
        }
      ],
      "stateMutability": "view",
      "type": "function"
    },
    {
      "inputs": [
        {
          "internalType": "uint256",
          "name": "tokenId",
          "type": "uint256"
        }
      ],
      "name": "getApproved",
      "outputs": [
        {
          "internalType": "address",
          "name": "",
          "type": "address"
        }
      ],
      "stateMutability": "view",
      "type": "function"
    },
    {
      "inputs": [
        {
          "internalType": "address",
          "name": "owner",
          "type": "address"
        },
        {
          "internalType": "address",
          "name": "operator",
          "type": "address"
        }
      ],
      "name": "isApprovedForAll",
      "outputs": [
        {
          "internalType": "bool",
          "name": "",
          "type": "bool"
        }
      ],
      "stateMutability": "view",
      "type": "function"
    },
    {
      "inputs": [],
      "name": "maximumTokens",
      "outputs": [
        {
          "internalType": "uint8",
          "name": "",
          "type": "uint8"
        }
      ],
      "stateMutability": "view",
      "type": "function"
    },
    {
      "inputs": [],
      "name": "name",
      "outputs": [
        {
          "internalType": "string",
          "name": "",
          "type": "string"
        }
      ],
      "stateMutability": "view",
      "type": "function"
    },
    {
      "inputs": [
        {
          "internalType": "uint256",
          "name": "tokenId",
          "type": "uint256"
        }
      ],
      "name": "ownerOf",
      "outputs": [
        {
          "internalType": "address",
          "name": "",
          "type": "address"
        }
      ],
      "stateMutability": "view",
      "type": "function"
    },
    {
      "inputs": [
        {
          "internalType": "address",
          "name": "from",
          "type": "address"
        },
        {
          "internalType": "address",
          "name": "to",
          "type": "address"
        },
        {
          "internalType": "uint256",
          "name": "tokenId",
          "type": "uint256"
        }
      ],
      "name": "safeTransferFrom",
      "outputs": [],
      "stateMutability": "nonpayable",
      "type": "function"
    },
    {
      "inputs": [
        {
          "internalType": "address",
          "name": "from",
          "type": "address"
        },
        {
          "internalType": "address",
          "name": "to",
          "type": "address"
        },
        {
          "internalType": "uint256",
          "name": "tokenId",
          "type": "uint256"
        },
        {
          "internalType": "bytes",
          "name": "_data",
          "type": "bytes"
        }
      ],
      "name": "safeTransferFrom",
      "outputs": [],
      "stateMutability": "nonpayable",
      "type": "function"
    },
    {
      "inputs": [
        {
          "internalType": "address",
          "name": "operator",
          "type": "address"
        },
        {
          "internalType": "bool",
          "name": "approved",
          "type": "bool"
        }
      ],
      "name": "setApprovalForAll",
      "outputs": [],
      "stateMutability": "nonpayable",
      "type": "function"
    },
    {
      "inputs": [
        {
          "internalType": "bytes4",
          "name": "interfaceId",
          "type": "bytes4"
        }
      ],
      "name": "supportsInterface",
      "outputs": [
        {
          "internalType": "bool",
          "name": "",
          "type": "bool"
        }
      ],
      "stateMutability": "view",
      "type": "function"
    },
    {
      "inputs": [],
      "name": "symbol",
      "outputs": [
        {
          "internalType": "string",
          "name": "",
          "type": "string"
        }
      ],
      "stateMutability": "view",
      "type": "function"
    },
    {
      "inputs": [],
      "name": "tokenCounter",
      "outputs": [
        {
          "internalType": "uint256",
          "name": "",
          "type": "uint256"
        }
      ],
      "stateMutability": "view",
      "type": "function"
    },
    {
      "inputs": [
        {
          "internalType": "uint256",
          "name": "tokenId",
          "type": "uint256"
        }
      ],
      "name": "tokenURI",
      "outputs": [
        {
          "internalType": "string",
          "name": "",
          "type": "string"
        }
      ],
      "stateMutability": "view",
      "type": "function"
    },
    {
      "inputs": [
        {
          "internalType": "address",
          "name": "from",
          "type": "address"
        },
        {
          "internalType": "address",
          "name": "to",
          "type": "address"
        },
        {
          "internalType": "uint256",
          "name": "tokenId",
          "type": "uint256"
        }
      ],
      "name": "transferFrom",
      "outputs": [],
      "stateMutability": "nonpayable",
      "type": "function"
    },
    {
      "inputs": [
        {
          "internalType": "string",
          "name": "tokenURI",
          "type": "string"
        }
      ],
      "name": "createCollectible",
      "outputs": [
        {
          "internalType": "uint256",
          "name": "",
          "type": "uint256"
        }
      ],
      "stateMutability": "nonpayable",
      "type": "function"
    }
  ],
  "bytecode": "0x608060405260006006553480156200001657600080fd5b5060405162002e0038038062002e0083398181016040528101906200003c9190620001f1565b6040518060400160405280600a81526020017f4b696c6c65725269636b000000000000000000000000000000000000000000008152506040518060400160405280600381526020017f52494b00000000000000000000000000000000000000000000000000000000008152508160009080519060200190620000c0929190620000fe565b508060019080519060200190620000d9929190620000fe565b50505080600760006101000a81548160ff021916908360ff1602179055505062000288565b8280546200010c9062000252565b90600052602060002090601f0160209004810192826200013057600085556200017c565b82601f106200014b57805160ff19168380011785556200017c565b828001600101855582156200017c579182015b828111156200017b5782518255916020019190600101906200015e565b5b5090506200018b91906200018f565b5090565b5b80821115620001aa57600081600090555060010162000190565b5090565b600080fd5b600060ff82169050919050565b620001cb81620001b3565b8114620001d757600080fd5b50565b600081519050620001eb81620001c0565b92915050565b6000602082840312156200020a5762000209620001ae565b5b60006200021a84828501620001da565b91505092915050565b7f4e487b7100000000000000000000000000000000000000000000000000000000600052602260045260246000fd5b600060028204905060018216806200026b57607f821691505b6020821081141562000282576200028162000223565b5b50919050565b612b6880620002986000396000f3fe608060405234801561001057600080fd5b50600436106101005760003560e01c806370a0823111610097578063c3a9bd8b11610066578063c3a9bd8b146102bd578063c87b56dd146102db578063d082e3811461030b578063e985e9c51461032957610100565b806370a082311461023757806395d89b4114610267578063a22cb46514610285578063b88d4fde146102a157610100565b806323b872dd116100d357806323b872dd1461019f57806331f1f3c3146101bb57806342842e0e146101eb5780636352211e1461020757610100565b806301ffc9a71461010557806306fdde0314610135578063081812fc14610153578063095ea7b314610183575b600080fd5b61011f600480360381019061011a91906118cc565b610359565b60405161012c9190611914565b60405180910390f35b61013d61043b565b60405161014a91906119c8565b60405180910390f35b61016d60048036038101906101689190611a20565b6104cd565b60405161017a9190611a8e565b60405180910390f35b61019d60048036038101906101989190611ad5565b610552565b005b6101b960048036038101906101b49190611b15565b61066a565b005b6101d560048036038101906101d09190611c9d565b6106ca565b6040516101e29190611cf5565b60405180910390f35b61020560048036038101906102009190611b15565b61075b565b005b610221600480360381019061021c9190611a20565b61077b565b60405161022e9190611a8e565b60405180910390f35b610251600480360381019061024c9190611d10565b61082d565b60405161025e9190611cf5565b60405180910390f35b61026f6108e5565b60405161027c91906119c8565b60405180910390f35b61029f600480360381019061029a9190611d69565b610977565b005b6102bb60048036038101906102b69190611e4a565b610af8565b005b6102c5610b5a565b6040516102d29190611ee9565b60405180910390f35b6102f560048036038101906102f09190611a20565b610b6d565b60405161030291906119c8565b60405180910390f35b610313610c14565b6040516103209190611cf5565b60405180910390f35b610343600480360381019061033e9190611f04565b610c1a565b6040516103509190611914565b60405180910390f35b60007f80ac58cd000000000000000000000000000000000000000000000000000000007bffffffffffffffffffffffffffffffffffffffffffffffffffffffff1916827bffffffffffffffffffffffffffffffffffffffffffffffffffffffff1916148061042457507f5b5e139f000000000000000000000000000000000000000000000000000000007bffffffffffffffffffffffffffffffffffffffffffffffffffffffff1916827bffffffffffffffffffffffffffffffffffffffffffffffffffffffff1916145b80610434575061043382610cae565b5b9050919050565b60606000805461044a90611f73565b80601f016020809104026020016040519081016040528092919081815260200182805461047690611f73565b80156104c35780601f10610498576101008083540402835291602001916104c3565b820191906000526020600020905b8154815290600101906020018083116104a657829003601f168201915b5050505050905090565b60006104d882610d18565b610517576040517f08c379a000000000000000000000000000000000000000000000000000000000815260040161050e90612017565b60405180910390fd5b6004600083815260200190815260200160002060009054906101000a900473ffffffffffffffffffffffffffffffffffffffff169050919050565b600061055d8261077b565b90508073ffffffffffffffffffffffffffffffffffffffff168373ffffffffffffffffffffffffffffffffffffffff1614156105ce576040517f08c379a00000000000000000000000000000000000000000000000000000000081526004016105c5906120a9565b60405180910390fd5b8073ffffffffffffffffffffffffffffffffffffffff166105ed610d84565b73ffffffffffffffffffffffffffffffffffffffff16148061061c575061061b81610616610d84565b610c1a565b5b61065b576040517f08c379a00000000000000000000000000000000000000000000000000000000081526004016106529061213b565b60405180910390fd5b6106658383610d8c565b505050565b61067b610675610d84565b82610e45565b6106ba576040517f08c379a00000000000000000000000000000000000000000000000000000000081526004016106b1906121cd565b60405180910390fd5b6106c5838383610f23565b505050565b6000600760009054906101000a900460ff1660ff1660065410610722576040517f08c379a000000000000000000000000000000000000000000000000000000000815260040161071990612239565b60405180910390fd5b60006006549050610733338261117f565b61073d818461119d565b600160065461074c9190612288565b60068190555080915050919050565b61077683838360405180602001604052806000815250610af8565b505050565b6000806002600084815260200190815260200160002060009054906101000a900473ffffffffffffffffffffffffffffffffffffffff169050600073ffffffffffffffffffffffffffffffffffffffff168173ffffffffffffffffffffffffffffffffffffffff161415610824576040517f08c379a000000000000000000000000000000000000000000000000000000000815260040161081b90612350565b60405180910390fd5b80915050919050565b60008073ffffffffffffffffffffffffffffffffffffffff168273ffffffffffffffffffffffffffffffffffffffff16141561089e576040517f08c379a0000000000000000000000000000000000000000000000000000000008152600401610895906123e2565b60405180910390fd5b600360008373ffffffffffffffffffffffffffffffffffffffff1673ffffffffffffffffffffffffffffffffffffffff168152602001908152602001600020549050919050565b6060600180546108f490611f73565b80601f016020809104026020016040519081016040528092919081815260200182805461092090611f73565b801561096d5780601f106109425761010080835404028352916020019161096d565b820191906000526020600020905b81548152906001019060200180831161095057829003601f168201915b5050505050905090565b61097f610d84565b73ffffffffffffffffffffffffffffffffffffffff168273ffffffffffffffffffffffffffffffffffffffff1614156109ed576040517f08c379a00000000000000000000000000000000000000000000000000000000081526004016109e49061244e565b60405180910390fd5b80600560006109fa610d84565b73ffffffffffffffffffffffffffffffffffffffff1673ffffffffffffffffffffffffffffffffffffffff16815260200190815260200160002060008473ffffffffffffffffffffffffffffffffffffffff1673ffffffffffffffffffffffffffffffffffffffff16815260200190815260200160002060006101000a81548160ff0219169083151502179055508173ffffffffffffffffffffffffffffffffffffffff16610aa7610d84565b73ffffffffffffffffffffffffffffffffffffffff167f17307eab39ab6107e8899845ad3d59bd9653f200f220920489ca2b5937696c3183604051610aec9190611914565b60405180910390a35050565b610b09610b03610d84565b83610e45565b610b48576040517f08c379a0000000000000000000000000000000000000000000000000000000008152600401610b3f906121cd565b60405180910390fd5b610b5484848484611211565b50505050565b600760009054906101000a900460ff1681565b6060610b7882610d18565b610bb7576040517f08c379a0000000000000000000000000000000000000000000000000000000008152600401610bae906124e0565b60405180910390fd5b6000610bc161126d565b90506000815111610be15760405180602001604052806000815250610c0c565b80610beb84611284565b604051602001610bfc92919061253c565b6040516020818303038152906040525b915050919050565b60065481565b6000600560008473ffffffffffffffffffffffffffffffffffffffff1673ffffffffffffffffffffffffffffffffffffffff16815260200190815260200160002060008373ffffffffffffffffffffffffffffffffffffffff1673ffffffffffffffffffffffffffffffffffffffff16815260200190815260200160002060009054906101000a900460ff16905092915050565b60007f01ffc9a7000000000000000000000000000000000000000000000000000000007bffffffffffffffffffffffffffffffffffffffffffffffffffffffff1916827bffffffffffffffffffffffffffffffffffffffffffffffffffffffff1916149050919050565b60008073ffffffffffffffffffffffffffffffffffffffff166002600084815260200190815260200160002060009054906101000a900473ffffffffffffffffffffffffffffffffffffffff1673ffffffffffffffffffffffffffffffffffffffff1614159050919050565b600033905090565b816004600083815260200190815260200160002060006101000a81548173ffffffffffffffffffffffffffffffffffffffff021916908373ffffffffffffffffffffffffffffffffffffffff160217905550808273ffffffffffffffffffffffffffffffffffffffff16610dff8361077b565b73ffffffffffffffffffffffffffffffffffffffff167f8c5be1e5ebec7d5bd14f71427d1e84f3dd0314c0f7b2291e5b200ac8c7c3b92560405160405180910390a45050565b6000610e5082610d18565b610e8f576040517f08c379a0000000000000000000000000000000000000000000000000000000008152600401610e86906125d2565b60405180910390fd5b6000610e9a8361077b565b90508073ffffffffffffffffffffffffffffffffffffffff168473ffffffffffffffffffffffffffffffffffffffff161480610f0957508373ffffffffffffffffffffffffffffffffffffffff16610ef1846104cd565b73ffffffffffffffffffffffffffffffffffffffff16145b80610f1a5750610f198185610c1a565b5b91505092915050565b8273ffffffffffffffffffffffffffffffffffffffff16610f438261077b565b73ffffffffffffffffffffffffffffffffffffffff1614610f99576040517f08c379a0000000000000000000000000000000000000000000000000000000008152600401610f9090612664565b60405180910390fd5b600073ffffffffffffffffffffffffffffffffffffffff168273ffffffffffffffffffffffffffffffffffffffff161415611009576040517f08c379a0000000000000000000000000000000000000000000000000000000008152600401611000906126f6565b60405180910390fd5b6110148383836113e5565b61101f600082610d8c565b6001600360008573ffffffffffffffffffffffffffffffffffffffff1673ffffffffffffffffffffffffffffffffffffffff168152602001908152602001600020600082825461106f9190612716565b925050819055506001600360008473ffffffffffffffffffffffffffffffffffffffff1673ffffffffffffffffffffffffffffffffffffffff16815260200190815260200160002060008282546110c69190612288565b92505081905550816002600083815260200190815260200160002060006101000a81548173ffffffffffffffffffffffffffffffffffffffff021916908373ffffffffffffffffffffffffffffffffffffffff160217905550808273ffffffffffffffffffffffffffffffffffffffff168473ffffffffffffffffffffffffffffffffffffffff167fddf252ad1be2c89b69c2b068fc378daa952ba7f163c4a11628f55a4df523b3ef60405160405180910390a4505050565b6111998282604051806020016040528060008152506113ea565b5050565b6111a682610d18565b6111e5576040517f08c379a00000000000000000000000000000000000000000000000000000000081526004016111dc906127bc565b60405180910390fd5b8060086000848152602001908152602001600020908051906020019061120c9291906117bd565b505050565b61121c848484610f23565b61122884848484611445565b611267576040517f08c379a000000000000000000000000000000000000000000000000000000000815260040161125e9061284e565b60405180910390fd5b50505050565b606060405180602001604052806000815250905090565b606060008214156112cc576040518060400160405280600181526020017f300000000000000000000000000000000000000000000000000000000000000081525090506113e0565b600082905060005b600082146112fe5780806112e79061286e565b915050600a826112f791906128e6565b91506112d4565b60008167ffffffffffffffff81111561131a57611319611b72565b5b6040519080825280601f01601f19166020018201604052801561134c5781602001600182028036833780820191505090505b5090505b600085146113d9576001826113659190612716565b9150600a856113749190612917565b60306113809190612288565b60f81b81838151811061139657611395612948565b5b60200101907effffffffffffffffffffffffffffffffffffffffffffffffffffffffffffff1916908160001a905350600a856113d291906128e6565b9450611350565b8093505050505b919050565b505050565b6113f483836115dc565b6114016000848484611445565b611440576040517f08c379a00000000000000000000000000000000000000000000000000000000081526004016114379061284e565b60405180910390fd5b505050565b60006114668473ffffffffffffffffffffffffffffffffffffffff166117aa565b156115cf578373ffffffffffffffffffffffffffffffffffffffff1663150b7a0261148f610d84565b8786866040518563ffffffff1660e01b81526004016114b194939291906129cc565b602060405180830381600087803b1580156114cb57600080fd5b505af19250505080156114fc57506040513d601f19601f820116820180604052508101906114f99190612a2d565b60015b61157f573d806000811461152c576040519150601f19603f3d011682016040523d82523d6000602084013e611531565b606091505b50600081511415611577576040517f08c379a000000000000000000000000000000000000000000000000000000000815260040161156e9061284e565b60405180910390fd5b805181602001fd5b63150b7a0260e01b7bffffffffffffffffffffffffffffffffffffffffffffffffffffffff1916817bffffffffffffffffffffffffffffffffffffffffffffffffffffffff1916149150506115d4565b600190505b949350505050565b600073ffffffffffffffffffffffffffffffffffffffff168273ffffffffffffffffffffffffffffffffffffffff16141561164c576040517f08c379a000000000000000000000000000000000000000000000000000000000815260040161164390612aa6565b60405180910390fd5b61165581610d18565b15611695576040517f08c379a000000000000000000000000000000000000000000000000000000000815260040161168c90612b12565b60405180910390fd5b6116a1600083836113e5565b6001600360008473ffffffffffffffffffffffffffffffffffffffff1673ffffffffffffffffffffffffffffffffffffffff16815260200190815260200160002060008282546116f19190612288565b92505081905550816002600083815260200190815260200160002060006101000a81548173ffffffffffffffffffffffffffffffffffffffff021916908373ffffffffffffffffffffffffffffffffffffffff160217905550808273ffffffffffffffffffffffffffffffffffffffff16600073ffffffffffffffffffffffffffffffffffffffff167fddf252ad1be2c89b69c2b068fc378daa952ba7f163c4a11628f55a4df523b3ef60405160405180910390a45050565b600080823b905060008111915050919050565b8280546117c990611f73565b90600052602060002090601f0160209004810192826117eb5760008555611832565b82601f1061180457805160ff1916838001178555611832565b82800160010185558215611832579182015b82811115611831578251825591602001919060010190611816565b5b50905061183f9190611843565b5090565b5b8082111561185c576000816000905550600101611844565b5090565b6000604051905090565b600080fd5b600080fd5b60007fffffffff0000000000000000000000000000000000000000000000000000000082169050919050565b6118a981611874565b81146118b457600080fd5b50565b6000813590506118c6816118a0565b92915050565b6000602082840312156118e2576118e161186a565b5b60006118f0848285016118b7565b91505092915050565b60008115159050919050565b61190e816118f9565b82525050565b60006020820190506119296000830184611905565b92915050565b600081519050919050565b600082825260208201905092915050565b60005b8381101561196957808201518184015260208101905061194e565b83811115611978576000848401525b50505050565b6000601f19601f8301169050919050565b600061199a8261192f565b6119a4818561193a565b93506119b481856020860161194b565b6119bd8161197e565b840191505092915050565b600060208201905081810360008301526119e2818461198f565b905092915050565b6000819050919050565b6119fd816119ea565b8114611a0857600080fd5b50565b600081359050611a1a816119f4565b92915050565b600060208284031215611a3657611a3561186a565b5b6000611a4484828501611a0b565b91505092915050565b600073ffffffffffffffffffffffffffffffffffffffff82169050919050565b6000611a7882611a4d565b9050919050565b611a8881611a6d565b82525050565b6000602082019050611aa36000830184611a7f565b92915050565b611ab281611a6d565b8114611abd57600080fd5b50565b600081359050611acf81611aa9565b92915050565b60008060408385031215611aec57611aeb61186a565b5b6000611afa85828601611ac0565b9250506020611b0b85828601611a0b565b9150509250929050565b600080600060608486031215611b2e57611b2d61186a565b5b6000611b3c86828701611ac0565b9350506020611b4d86828701611ac0565b9250506040611b5e86828701611a0b565b9150509250925092565b600080fd5b600080fd5b7f4e487b7100000000000000000000000000000000000000000000000000000000600052604160045260246000fd5b611baa8261197e565b810181811067ffffffffffffffff82111715611bc957611bc8611b72565b5b80604052505050565b6000611bdc611860565b9050611be88282611ba1565b919050565b600067ffffffffffffffff821115611c0857611c07611b72565b5b611c118261197e565b9050602081019050919050565b82818337600083830152505050565b6000611c40611c3b84611bed565b611bd2565b905082815260208101848484011115611c5c57611c5b611b6d565b5b611c67848285611c1e565b509392505050565b600082601f830112611c8457611c83611b68565b5b8135611c94848260208601611c2d565b91505092915050565b600060208284031215611cb357611cb261186a565b5b600082013567ffffffffffffffff811115611cd157611cd061186f565b5b611cdd84828501611c6f565b91505092915050565b611cef816119ea565b82525050565b6000602082019050611d0a6000830184611ce6565b92915050565b600060208284031215611d2657611d2561186a565b5b6000611d3484828501611ac0565b91505092915050565b611d46816118f9565b8114611d5157600080fd5b50565b600081359050611d6381611d3d565b92915050565b60008060408385031215611d8057611d7f61186a565b5b6000611d8e85828601611ac0565b9250506020611d9f85828601611d54565b9150509250929050565b600067ffffffffffffffff821115611dc457611dc3611b72565b5b611dcd8261197e565b9050602081019050919050565b6000611ded611de884611da9565b611bd2565b905082815260208101848484011115611e0957611e08611b6d565b5b611e14848285611c1e565b509392505050565b600082601f830112611e3157611e30611b68565b5b8135611e41848260208601611dda565b91505092915050565b60008060008060808587031215611e6457611e6361186a565b5b6000611e7287828801611ac0565b9450506020611e8387828801611ac0565b9350506040611e9487828801611a0b565b925050606085013567ffffffffffffffff811115611eb557611eb461186f565b5b611ec187828801611e1c565b91505092959194509250565b600060ff82169050919050565b611ee381611ecd565b82525050565b6000602082019050611efe6000830184611eda565b92915050565b60008060408385031215611f1b57611f1a61186a565b5b6000611f2985828601611ac0565b9250506020611f3a85828601611ac0565b9150509250929050565b7f4e487b7100000000000000000000000000000000000000000000000000000000600052602260045260246000fd5b60006002820490506001821680611f8b57607f821691505b60208210811415611f9f57611f9e611f44565b5b50919050565b7f4552433732313a20617070726f76656420717565727920666f72206e6f6e657860008201527f697374656e7420746f6b656e0000000000000000000000000000000000000000602082015250565b6000612001602c8361193a565b915061200c82611fa5565b604082019050919050565b6000602082019050818103600083015261203081611ff4565b9050919050565b7f4552433732313a20617070726f76616c20746f2063757272656e74206f776e6560008201527f7200000000000000000000000000000000000000000000000000000000000000602082015250565b600061209360218361193a565b915061209e82612037565b604082019050919050565b600060208201905081810360008301526120c281612086565b9050919050565b7f4552433732313a20617070726f76652063616c6c6572206973206e6f74206f7760008201527f6e6572206e6f7220617070726f76656420666f7220616c6c0000000000000000602082015250565b600061212560388361193a565b9150612130826120c9565b604082019050919050565b6000602082019050818103600083015261215481612118565b9050919050565b7f4552433732313a207472616e736665722063616c6c6572206973206e6f74206f60008201527f776e6572206e6f7220617070726f766564000000000000000000000000000000602082015250565b60006121b760318361193a565b91506121c28261215b565b604082019050919050565b600060208201905081810360008301526121e6816121aa565b9050919050565b7f596f752063616e6e6f74206d696e7420616e796d6f726520746f6b656e730000600082015250565b6000612223601e8361193a565b915061222e826121ed565b602082019050919050565b6000602082019050818103600083015261225281612216565b9050919050565b7f4e487b7100000000000000000000000000000000000000000000000000000000600052601160045260246000fd5b6000612293826119ea565b915061229e836119ea565b9250827fffffffffffffffffffffffffffffffffffffffffffffffffffffffffffffffff038211156122d3576122d2612259565b5b828201905092915050565b7f4552433732313a206f776e657220717565727920666f72206e6f6e657869737460008201527f656e7420746f6b656e0000000000000000000000000000000000000000000000602082015250565b600061233a60298361193a565b9150612345826122de565b604082019050919050565b600060208201905081810360008301526123698161232d565b9050919050565b7f4552433732313a2062616c616e636520717565727920666f7220746865207a6560008201527f726f206164647265737300000000000000000000000000000000000000000000602082015250565b60006123cc602a8361193a565b91506123d782612370565b604082019050919050565b600060208201905081810360008301526123fb816123bf565b9050919050565b7f4552433732313a20617070726f766520746f2063616c6c657200000000000000600082015250565b600061243860198361193a565b915061244382612402565b602082019050919050565b600060208201905081810360008301526124678161242b565b9050919050565b7f4552433732314d657461646174613a2055524920717565727920666f72206e6f60008201527f6e6578697374656e7420746f6b656e0000000000000000000000000000000000602082015250565b60006124ca602f8361193a565b91506124d58261246e565b604082019050919050565b600060208201905081810360008301526124f9816124bd565b9050919050565b600081905092915050565b60006125168261192f565b6125208185612500565b935061253081856020860161194b565b80840191505092915050565b6000612548828561250b565b9150612554828461250b565b91508190509392505050565b7f4552433732313a206f70657261746f7220717565727920666f72206e6f6e657860008201527f697374656e7420746f6b656e0000000000000000000000000000000000000000602082015250565b60006125bc602c8361193a565b91506125c782612560565b604082019050919050565b600060208201905081810360008301526125eb816125af565b9050919050565b7f4552433732313a207472616e73666572206f6620746f6b656e2074686174206960008201527f73206e6f74206f776e0000000000000000000000000000000000000000000000602082015250565b600061264e60298361193a565b9150612659826125f2565b604082019050919050565b6000602082019050818103600083015261267d81612641565b9050919050565b7f4552433732313a207472616e7366657220746f20746865207a65726f2061646460008201527f7265737300000000000000000000000000000000000000000000000000000000602082015250565b60006126e060248361193a565b91506126eb82612684565b604082019050919050565b6000602082019050818103600083015261270f816126d3565b9050919050565b6000612721826119ea565b915061272c836119ea565b92508282101561273f5761273e612259565b5b828203905092915050565b7f52494b20746f6b656e2077697468207468697320496420646f65736e7420657860008201527f6973740000000000000000000000000000000000000000000000000000000000602082015250565b60006127a660238361193a565b91506127b18261274a565b604082019050919050565b600060208201905081810360008301526127d581612799565b9050919050565b7f4552433732313a207472616e7366657220746f206e6f6e20455243373231526560008201527f63656976657220696d706c656d656e7465720000000000000000000000000000602082015250565b600061283860328361193a565b9150612843826127dc565b604082019050919050565b600060208201905081810360008301526128678161282b565b9050919050565b6000612879826119ea565b91507fffffffffffffffffffffffffffffffffffffffffffffffffffffffffffffffff8214156128ac576128ab612259565b5b600182019050919050565b7f4e487b7100000000000000000000000000000000000000000000000000000000600052601260045260246000fd5b60006128f1826119ea565b91506128fc836119ea565b92508261290c5761290b6128b7565b5b828204905092915050565b6000612922826119ea565b915061292d836119ea565b92508261293d5761293c6128b7565b5b828206905092915050565b7f4e487b7100000000000000000000000000000000000000000000000000000000600052603260045260246000fd5b600081519050919050565b600082825260208201905092915050565b600061299e82612977565b6129a88185612982565b93506129b881856020860161194b565b6129c18161197e565b840191505092915050565b60006080820190506129e16000830187611a7f565b6129ee6020830186611a7f565b6129fb6040830185611ce6565b8181036060830152612a0d8184612993565b905095945050505050565b600081519050612a27816118a0565b92915050565b600060208284031215612a4357612a4261186a565b5b6000612a5184828501612a18565b91505092915050565b7f4552433732313a206d696e7420746f20746865207a65726f2061646472657373600082015250565b6000612a9060208361193a565b9150612a9b82612a5a565b602082019050919050565b60006020820190508181036000830152612abf81612a83565b9050919050565b7f4552433732313a20746f6b656e20616c7265616479206d696e74656400000000600082015250565b6000612afc601c8361193a565b9150612b0782612ac6565b602082019050919050565b60006020820190508181036000830152612b2b81612aef565b905091905056fea26469706673582212206ad8ab19f2a597419e55de53d148ac23f6e7f1e6123c0bbee96a1ac80de7c00e64736f6c63430008090033",
  "immutableReferences": {},
  "source": "// SPDX-License-Identifier: MIT\npragma solidity >=0.4.22 <0.9.0;\n\nimport \"@openzeppelin/contracts/token/ERC721/ERC721.sol\";\n\n\ncontract SimpleCollectible is ERC721{\n\n  uint256 public tokenCounter = 0;\n  uint8 public maximumTokens;\n\n  // Optional mapping for token URIs\n  mapping (uint256 => string) private _tokenURIs;\n\n  constructor(uint8 _maximumTokens) public ERC721(\"KillerRick\",\"RIK\") {\n    maximumTokens = _maximumTokens;\n  }\n\n  function _setTokenURI(uint256 _newItemId, string memory _tokenURI) internal {\n    require(_exists(_newItemId), \"RIK token with this Id doesnt exist\");\n    _tokenURIs[_newItemId] = _tokenURI;\n  }\n\n  function createCollectible(string memory tokenURI) public returns(uint256) {\n    require(tokenCounter < maximumTokens, \"You cannot mint anymore tokens\");\n    uint256 newItemId = tokenCounter;\n    _safeMint(msg.sender, newItemId);\n    _setTokenURI(newItemId, tokenURI);\n    tokenCounter = tokenCounter + 1;\n    return newItemId;\n  }\n}\n",
  "sourcePath": "C:\\Users\\DELL\\Documents\\Professional Portfolio\\ERC721-OpenZeppelin\\contracts\\SimpleCollectible.sol",
  "compiler": {
    "name": "solc",
    "version": "0.8.9+commit.e5eed63a.Emscripten.clang"
  },
  "schemaVersion": "3.4.3",
  "updatedAt": "2021-09-30T10:34:05.438Z",
  "devdoc": {
    "kind": "dev",
    "methods": {
      "approve(address,uint256)": {
        "details": "See {IERC721-approve}."
      },
      "balanceOf(address)": {
        "details": "See {IERC721-balanceOf}."
      },
      "getApproved(uint256)": {
        "details": "See {IERC721-getApproved}."
      },
      "isApprovedForAll(address,address)": {
        "details": "See {IERC721-isApprovedForAll}."
      },
      "name()": {
        "details": "See {IERC721Metadata-name}."
      },
      "ownerOf(uint256)": {
        "details": "See {IERC721-ownerOf}."
      },
      "safeTransferFrom(address,address,uint256)": {
        "details": "See {IERC721-safeTransferFrom}."
      },
      "safeTransferFrom(address,address,uint256,bytes)": {
        "details": "See {IERC721-safeTransferFrom}."
      },
      "setApprovalForAll(address,bool)": {
        "details": "See {IERC721-setApprovalForAll}."
      },
      "supportsInterface(bytes4)": {
        "details": "See {IERC165-supportsInterface}."
      },
      "symbol()": {
        "details": "See {IERC721Metadata-symbol}."
      },
      "tokenURI(uint256)": {
        "details": "See {IERC721Metadata-tokenURI}."
      },
      "transferFrom(address,address,uint256)": {
        "details": "See {IERC721-transferFrom}."
      }
    },
    "version": 1
  },
  "userdoc": {
    "kind": "user",
    "methods": {},
    "version": 1
  }
}